{
  "contractName": "FileManagement",
  "abi": [
    {
      "anonymous": false,
      "inputs": [
        {
          "indexed": true,
          "internalType": "bytes32",
          "name": "fileHash",
          "type": "bytes32"
        }
      ],
      "name": "FileAdded",
      "type": "event"
    },
    {
      "anonymous": false,
      "inputs": [
        {
          "indexed": true,
          "internalType": "bytes32",
          "name": "fileHash",
          "type": "bytes32"
        }
      ],
      "name": "FileRemoved",
      "type": "event"
    },
    {
      "inputs": [
        {
          "internalType": "bytes32",
          "name": "fileHash",
          "type": "bytes32"
        }
      ],
      "name": "addFile",
      "outputs": [],
      "stateMutability": "nonpayable",
      "type": "function"
    },
    {
      "inputs": [
        {
          "internalType": "bytes32",
          "name": "fileHash",
          "type": "bytes32"
        }
      ],
      "name": "removeFile",
      "outputs": [],
      "stateMutability": "nonpayable",
      "type": "function"
    },
    {
      "inputs": [
        {
          "internalType": "bytes32",
          "name": "fileHash",
          "type": "bytes32"
        }
      ],
      "name": "fileExists",
      "outputs": [
        {
          "internalType": "bool",
          "name": "",
          "type": "bool"
        }
      ],
      "stateMutability": "view",
      "type": "function",
      "constant": true
    }
  ],
  "bytecode": "0x608060405234801561001057600080fd5b50610409806100206000396000f3fe608060405234801561001057600080fd5b50600436106100415760003560e01c80630bef429b146100465780630cec5f62146100625780636b31827014610092575b600080fd5b610060600480360381019061005b9190610287565b6100ae565b005b61007c60048036038101906100779190610287565b610168565b60405161008991906102cf565b60405180910390f35b6100ac60048036038101906100a79190610287565b610191565b005b60008082815260200190815260200160002060009054906101000a900460ff1661010d576040517f08c379a000000000000000000000000000000000000000000000000000000000815260040161010490610347565b60405180910390fd5b600080600083815260200190815260200160002060006101000a81548160ff021916908315150217905550807fdb285357396016c282675b7ceb7d91b2af02f76abd0755d82889ad45473cad3160405160405180910390a250565b600080600083815260200190815260200160002060009054906101000a900460ff169050919050565b60008082815260200190815260200160002060009054906101000a900460ff16156101f1576040517f08c379a00000000000000000000000000000000000000000000000000000000081526004016101e8906103b3565b60405180910390fd5b600160008083815260200190815260200160002060006101000a81548160ff021916908315150217905550807fd01c63f5d4ce61db3d5e172c3bd75dec6e87355101281e1d4384947e60bbb54e60405160405180910390a250565b600080fd5b6000819050919050565b61026481610251565b811461026f57600080fd5b50565b6000813590506102818161025b565b92915050565b60006020828403121561029d5761029c61024c565b5b60006102ab84828501610272565b91505092915050565b60008115159050919050565b6102c9816102b4565b82525050565b60006020820190506102e460008301846102c0565b92915050565b600082825260208201905092915050565b7f46696c6520646f6573206e6f7420657869737400000000000000000000000000600082015250565b60006103316013836102ea565b915061033c826102fb565b602082019050919050565b6000602082019050818103600083015261036081610324565b9050919050565b7f46696c6520616c72656164792065786973747300000000000000000000000000600082015250565b600061039d6013836102ea565b91506103a882610367565b602082019050919050565b600060208201905081810360008301526103cc81610390565b905091905056fea2646970667358221220618598a5aae059213467eb113bd9e21f1c37fe948b0af89b0276601183302ed664736f6c63430008130033",
  "immutableReferences": {},
  "source": "pragma solidity ^0.8.0;\n\ncontract FileManagement {\n    // Variables\n    mapping(bytes32 => bool) private files;\n\n    // Events\n    event FileAdded(bytes32 indexed fileHash);\n    event FileRemoved(bytes32 indexed fileHash);\n\n    // Functions\n    function addFile(bytes32 fileHash) public {\n        require(!files[fileHash], \"File already exists\");\n        files[fileHash] = true;\n        emit FileAdded(fileHash);\n    }\n\n    function removeFile(bytes32 fileHash) public {\n        require(files[fileHash], \"File does not exist\");\n        files[fileHash] = false;\n        emit FileRemoved(fileHash);\n    }\n\n    function fileExists(bytes32 fileHash) public view returns (bool) {\n        return files[fileHash];\n    }\n}\n",
  "sourcePath": "/home/dj/fms/contracts/FileManagement.sol",
  "compiler": {
    "name": "solc",
    "version": "0.8.19+commit.7dd6d404.Emscripten.clang"
  },
  "schemaVersion": "3.4.13",
  "updatedAt": "2023-03-24T07:29:31.952Z",
  "networkType": "ethereum",
  "devdoc": {
    "kind": "dev",
    "methods": {},
    "version": 1
  },
  "userdoc": {
    "kind": "user",
    "methods": {},
    "version": 1
  }
}